{"abi":[{"type":"constructor","inputs":[{"name":"_minter","type":"address","internalType":"address"}],"stateMutability":"nonpayable"},{"type":"function","name":"balanceOf","inputs":[{"name":"","type":"address","internalType":"address"}],"outputs":[{"name":"","type":"uint256","internalType":"uint256"}],"stateMutability":"view"},{"type":"function","name":"holds","inputs":[{"name":"who","type":"address","internalType":"address"}],"outputs":[{"name":"","type":"bool","internalType":"bool"}],"stateMutability":"view"},{"type":"function","name":"mint","inputs":[{"name":"to","type":"address","internalType":"address"},{"name":"priceUsdc6","type":"uint256","internalType":"uint256"}],"outputs":[{"name":"id","type":"uint256","internalType":"uint256"}],"stateMutability":"nonpayable"},{"type":"function","name":"minter","inputs":[],"outputs":[{"name":"","type":"address","internalType":"address"}],"stateMutability":"view"},{"type":"function","name":"name","inputs":[],"outputs":[{"name":"","type":"string","internalType":"string"}],"stateMutability":"view"},{"type":"function","name":"nextId","inputs":[],"outputs":[{"name":"","type":"uint256","internalType":"uint256"}],"stateMutability":"view"},{"type":"function","name":"ownerOf","inputs":[{"name":"","type":"uint256","internalType":"uint256"}],"outputs":[{"name":"","type":"address","internalType":"address"}],"stateMutability":"view"},{"type":"function","name":"priceOf","inputs":[{"name":"","type":"uint256","internalType":"uint256"}],"outputs":[{"name":"","type":"uint256","internalType":"uint256"}],"stateMutability":"view"},{"type":"function","name":"symbol","inputs":[],"outputs":[{"name":"","type":"string","internalType":"string"}],"stateMutability":"view"},{"type":"event","name":"Minted","inputs":[{"name":"to","type":"address","indexed":true,"internalType":"address"},{"name":"id","type":"uint256","indexed":true,"internalType":"uint256"},{"name":"priceUsdc6","type":"uint256","indexed":false,"internalType":"uint256"}],"anonymous":false},{"type":"event","name":"Transfer","inputs":[{"name":"from","type":"address","indexed":true,"internalType":"address"},{"name":"to","type":"address","indexed":true,"internalType":"address"},{"name":"id","type":"uint256","indexed":true,"internalType":"uint256"}],"anonymous":false}],"bytecode":{"object":"0x608060405234801561000f575f5ffd5b506040516109d43803806109d4833981810160405281019061003191906100d4565b805f5f6101000a81548173ffffffffffffffffffffffffffffffffffffffff021916908373ffffffffffffffffffffffffffffffffffffffff160217905550506100ff565b5f5ffd5b5f73ffffffffffffffffffffffffffffffffffffffff82169050919050565b5f6100a38261007a565b9050919050565b6100b381610099565b81146100bd575f5ffd5b50565b5f815190506100ce816100aa565b92915050565b5f602082840312156100e9576100e8610076565b5b5f6100f6848285016100c0565b91505092915050565b6108c88061010c5f395ff3fe608060405234801561000f575f5ffd5b5060043610610091575f3560e01c80636352211e116100645780636352211e1461011f57806370a082311461014f57806395d89b411461017f578063b9186d7d1461019d578063c3d073ff146101cd57610091565b806306fdde031461009557806307546172146100b357806340c10f19146100d157806361b8ce8c14610101575b5f5ffd5b61009d6101fd565b6040516100aa91906105bb565b60405180910390f35b6100bb610236565b6040516100c8919061061a565b60405180910390f35b6100eb60048036038101906100e69190610694565b61025a565b6040516100f891906106e1565b60405180910390f35b61010961046a565b60405161011691906106e1565b60405180910390f35b610139600480360381019061013491906106fa565b610470565b604051610146919061061a565b60405180910390f35b61016960048036038101906101649190610725565b6104a0565b60405161017691906106e1565b60405180910390f35b6101876104b5565b60405161019491906105bb565b60405180910390f35b6101b760048036038101906101b291906106fa565b6104ee565b6040516101c491906106e1565b60405180910390f35b6101e760048036038101906101e29190610725565b610503565b6040516101f4919061076a565b60405180910390f35b6040518060400160405280600f81526020017f526f766572204576656e7450617373000000000000000000000000000000000081525081565b5f5f9054906101000a900473ffffffffffffffffffffffffffffffffffffffff1681565b5f5f5f9054906101000a900473ffffffffffffffffffffffffffffffffffffffff1673ffffffffffffffffffffffffffffffffffffffff163373ffffffffffffffffffffffffffffffffffffffff16146102e9576040517f08c379a00000000000000000000000000000000000000000000000000000000081526004016102e0906107cd565b60405180910390fd5b60015f8154809291906102fb90610818565b9190505590508260025f8381526020019081526020015f205f6101000a81548173ffffffffffffffffffffffffffffffffffffffff021916908373ffffffffffffffffffffffffffffffffffffffff160217905550600160035f8573ffffffffffffffffffffffffffffffffffffffff1673ffffffffffffffffffffffffffffffffffffffff1681526020019081526020015f205f82825461039d919061085f565b925050819055508160045f8381526020019081526020015f2081905550808373ffffffffffffffffffffffffffffffffffffffff165f73ffffffffffffffffffffffffffffffffffffffff167fddf252ad1be2c89b69c2b068fc378daa952ba7f163c4a11628f55a4df523b3ef60405160405180910390a4808373ffffffffffffffffffffffffffffffffffffffff167f25b428dfde728ccfaddad7e29e4ac23c24ed7fd1a6e3e3f91894a9a073f5dfff8460405161045c91906106e1565b60405180910390a392915050565b60015481565b6002602052805f5260405f205f915054906101000a900473ffffffffffffffffffffffffffffffffffffffff1681565b6003602052805f5260405f205f915090505481565b6040518060400160405280600481526020017f504153530000000000000000000000000000000000000000000000000000000081525081565b6004602052805f5260405f205f915090505481565b5f5f60035f8473ffffffffffffffffffffffffffffffffffffffff1673ffffffffffffffffffffffffffffffffffffffff1681526020019081526020015f2054119050919050565b5f81519050919050565b5f82825260208201905092915050565b8281835e5f83830152505050565b5f601f19601f8301169050919050565b5f61058d8261054b565b6105978185610555565b93506105a7818560208601610565565b6105b081610573565b840191505092915050565b5f6020820190508181035f8301526105d38184610583565b905092915050565b5f73ffffffffffffffffffffffffffffffffffffffff82169050919050565b5f610604826105db565b9050919050565b610614816105fa565b82525050565b5f60208201905061062d5f83018461060b565b92915050565b5f5ffd5b610640816105fa565b811461064a575f5ffd5b50565b5f8135905061065b81610637565b92915050565b5f819050919050565b61067381610661565b811461067d575f5ffd5b50565b5f8135905061068e8161066a565b92915050565b5f5f604083850312156106aa576106a9610633565b5b5f6106b78582860161064d565b92505060206106c885828601610680565b9150509250929050565b6106db81610661565b82525050565b5f6020820190506106f45f8301846106d2565b92915050565b5f6020828403121561070f5761070e610633565b5b5f61071c84828501610680565b91505092915050565b5f6020828403121561073a57610739610633565b5b5f6107478482850161064d565b91505092915050565b5f8115159050919050565b61076481610750565b82525050565b5f60208201905061077d5f83018461075b565b92915050565b7f6e6f74206d696e746572000000000000000000000000000000000000000000005f82015250565b5f6107b7600a83610555565b91506107c282610783565b602082019050919050565b5f6020820190508181035f8301526107e4816107ab565b9050919050565b7f4e487b71000000000000000000000000000000000000000000000000000000005f52601160045260245ffd5b5f61082282610661565b91507fffffffffffffffffffffffffffffffffffffffffffffffffffffffffffffffff8203610854576108536107eb565b5b600182019050919050565b5f61086982610661565b915061087483610661565b925082820190508082111561088c5761088b6107eb565b5b9291505056fea2646970667358221220f7bc520988a53d53ec5ab73f13739283494d11a3d06869979e60f6a6edde5dba64736f6c634300081c0033","linkReferences":{}},"methodIdentifiers":{"balanceOf(address)":"70a08231","holds(address)":"c3d073ff","mint(address,uint256)":"40c10f19","minter()":"07546172","name()":"06fdde03","nextId()":"61b8ce8c","ownerOf(uint256)":"6352211e","priceOf(uint256)":"b9186d7d","symbol()":"95d89b41"},"id":0}