{"abi":[{"type":"constructor","inputs":[{"name":"_usdc","type":"address","internalType":"address"},{"name":"_judge","type":"address","internalType":"address"},{"name":"_operator","type":"address","internalType":"address"}],"stateMutability":"nonpayable"},{"type":"function","name":"bet","inputs":[{"name":"raceId","type":"uint256","internalType":"uint256"},{"name":"racer","type":"uint8","internalType":"uint8"},{"name":"amount","type":"uint256","internalType":"uint256"},{"name":"worldNullifier","type":"uint256","internalType":"uint256"}],"outputs":[],"stateMutability":"nonpayable"},{"type":"function","name":"claim","inputs":[{"name":"raceId","type":"uint256","internalType":"uint256"}],"outputs":[],"stateMutability":"nonpayable"},{"type":"function","name":"judge","inputs":[],"outputs":[{"name":"","type":"address","internalType":"address"}],"stateMutability":"view"},{"type":"function","name":"nextRaceId","inputs":[],"outputs":[{"name":"","type":"uint256","internalType":"uint256"}],"stateMutability":"view"},{"type":"function","name":"openRace","inputs":[{"name":"numRacers","type":"uint8","internalType":"uint8"}],"outputs":[{"name":"raceId","type":"uint256","internalType":"uint256"}],"stateMutability":"nonpayable"},{"type":"function","name":"operator","inputs":[],"outputs":[{"name":"","type":"address","internalType":"address"}],"stateMutability":"view"},{"type":"function","name":"setJudge","inputs":[{"name":"newJudge","type":"address","internalType":"address"}],"outputs":[],"stateMutability":"nonpayable"},{"type":"function","name":"settle","inputs":[{"name":"raceId","type":"uint256","internalType":"uint256"},{"name":"winner","type":"uint8","internalType":"uint8"},{"name":"proofHash","type":"bytes32","internalType":"bytes32"},{"name":"walrusBlobId","type":"string","internalType":"string"}],"outputs":[],"stateMutability":"nonpayable"},{"type":"function","name":"usdc","inputs":[],"outputs":[{"name":"","type":"address","internalType":"contract IERC20"}],"stateMutability":"view"},{"type":"event","name":"Bet","inputs":[{"name":"raceId","type":"uint256","indexed":true,"internalType":"uint256"},{"name":"bettor","type":"address","indexed":true,"internalType":"address"},{"name":"racer","type":"uint8","indexed":false,"internalType":"uint8"},{"name":"amount","type":"uint256","indexed":false,"internalType":"uint256"},{"name":"worldNullifier","type":"uint256","indexed":false,"internalType":"uint256"}],"anonymous":false},{"type":"event","name":"Claimed","inputs":[{"name":"raceId","type":"uint256","indexed":true,"internalType":"uint256"},{"name":"bettor","type":"address","indexed":true,"internalType":"address"},{"name":"payout","type":"uint256","indexed":false,"internalType":"uint256"}],"anonymous":false},{"type":"event","name":"RaceOpened","inputs":[{"name":"raceId","type":"uint256","indexed":true,"internalType":"uint256"},{"name":"numRacers","type":"uint8","indexed":false,"internalType":"uint8"}],"anonymous":false},{"type":"event","name":"Settled","inputs":[{"name":"raceId","type":"uint256","indexed":true,"internalType":"uint256"},{"name":"winner","type":"uint8","indexed":false,"internalType":"uint8"},{"name":"proofHash","type":"bytes32","indexed":false,"internalType":"bytes32"},{"name":"walrusBlobId","type":"string","indexed":false,"internalType":"string"}],"anonymous":false}],"bytecode":{"object":"0x60a060405234801561000f575f5ffd5b50604051611a17380380611a178339818101604052810190610031919061014a565b8273ffffffffffffffffffffffffffffffffffffffff1660808173ffffffffffffffffffffffffffffffffffffffff1681525050815f5f6101000a81548173ffffffffffffffffffffffffffffffffffffffff021916908373ffffffffffffffffffffffffffffffffffffffff1602179055508060015f6101000a81548173ffffffffffffffffffffffffffffffffffffffff021916908373ffffffffffffffffffffffffffffffffffffffff16021790555050505061019a565b5f5ffd5b5f73ffffffffffffffffffffffffffffffffffffffff82169050919050565b5f610119826100f0565b9050919050565b6101298161010f565b8114610133575f5ffd5b50565b5f8151905061014481610120565b92915050565b5f5f5f60608486031215610161576101606100ec565b5b5f61016e86828701610136565b935050602061017f86828701610136565b925050604061019086828701610136565b9150509250925092565b6080516118576101c05f395f81816103d8015281816105080152610b0001526118575ff3fe608060405234801561000f575f5ffd5b5060043610610091575f3560e01c80636c6220b8116100645780636c6220b81461010b578063b157c5cd1461013b578063d9b8fd8f14610157578063ddb79c3314610175578063fe9650401461019157610091565b8063379607f5146100955780633e413bee146100b1578063570ca735146100cf578063573255f4146100ed575b5f5ffd5b6100af60048036038101906100aa9190610d53565b6101ad565b005b6100b9610506565b6040516100c69190610df8565b60405180910390f35b6100d761052a565b6040516100e49190610e31565b60405180910390f35b6100f561054f565b6040516101029190610e31565b60405180910390f35b61012560048036038101906101209190610e80565b610573565b6040516101329190610eba565b60405180910390f35b61015560048036038101906101509190610efd565b6106a3565b005b61015f610774565b60405161016c9190610eba565b60405180910390f35b61018f600480360381019061018a9190610fbc565b61077a565b005b6101ab60048036038101906101a69190611040565b61091d565b005b5f60025f8381526020019081526020015f209050805f0160019054906101000a900460ff16610211576040517f08c379a0000000000000000000000000000000000000000000000000000000008152600401610208906110fe565b60405180910390fd5b805f0160029054906101000a900460ff1660ff16816003015f3373ffffffffffffffffffffffffffffffffffffffff1673ffffffffffffffffffffffffffffffffffffffff1681526020019081526020015f205f9054906101000a900460ff1660ff16146102b4576040517f08c379a00000000000000000000000000000000000000000000000000000000081526004016102ab90611166565b60405180910390fd5b5f816004015f3373ffffffffffffffffffffffffffffffffffffffff1673ffffffffffffffffffffffffffffffffffffffff1681526020019081526020015f205490505f8111610339576040517f08c379a0000000000000000000000000000000000000000000000000000000008152600401610330906111ce565b60405180910390fd5b5f826004015f3373ffffffffffffffffffffffffffffffffffffffff1673ffffffffffffffffffffffffffffffffffffffff1681526020019081526020015f20819055505f826001015f845f0160029054906101000a900460ff1660ff1660ff1681526020019081526020015f205490505f5f82146103d257818460020154846103c39190611219565b6103cd9190611287565b6103d4565b5f5b90507f000000000000000000000000000000000000000000000000000000000000000073ffffffffffffffffffffffffffffffffffffffff1663a9059cbb33836040518363ffffffff1660e01b81526004016104319291906112b7565b6020604051808303815f875af115801561044d573d5f5f3e3d5ffd5b505050506040513d601f19601f820116820180604052508101906104719190611313565b6104b0576040517f08c379a00000000000000000000000000000000000000000000000000000000081526004016104a790611388565b60405180910390fd5b3373ffffffffffffffffffffffffffffffffffffffff16857f4ec90e965519d92681267467f775ada5bd214aa92c0dc93d90a5e880ce9ed026836040516104f79190610eba565b60405180910390a35050505050565b7f000000000000000000000000000000000000000000000000000000000000000081565b60015f9054906101000a900473ffffffffffffffffffffffffffffffffffffffff1681565b5f5f9054906101000a900473ffffffffffffffffffffffffffffffffffffffff1681565b5f5f5f9054906101000a900473ffffffffffffffffffffffffffffffffffffffff1673ffffffffffffffffffffffffffffffffffffffff163373ffffffffffffffffffffffffffffffffffffffff1614610602576040517f08c379a00000000000000000000000000000000000000000000000000000000081526004016105f9906113f0565b60405180910390fd5b60035f8154809291906106149061140e565b9190505590505f60025f8381526020019081526020015f2090506001815f015f6101000a81548160ff02191690831515021790555082815f0160036101000a81548160ff021916908360ff160217905550817fc4322171e87a1fe62d6ead8a6bf98da9d42955a60499d998252f19883a4c8150846040516106959190611464565b60405180910390a250919050565b60015f9054906101000a900473ffffffffffffffffffffffffffffffffffffffff1673ffffffffffffffffffffffffffffffffffffffff163373ffffffffffffffffffffffffffffffffffffffff1614610732576040517f08c379a0000000000000000000000000000000000000000000000000000000008152600401610729906114c7565b60405180910390fd5b805f5f6101000a81548173ffffffffffffffffffffffffffffffffffffffff021916908373ffffffffffffffffffffffffffffffffffffffff16021790555050565b60035481565b5f5f9054906101000a900473ffffffffffffffffffffffffffffffffffffffff1673ffffffffffffffffffffffffffffffffffffffff163373ffffffffffffffffffffffffffffffffffffffff1614610808576040517f08c379a00000000000000000000000000000000000000000000000000000000081526004016107ff906113f0565b60405180910390fd5b5f60025f8781526020019081526020015f209050805f015f9054906101000a900460ff1680156108465750805f0160019054906101000a900460ff16155b610885576040517f08c379a000000000000000000000000000000000000000000000000000000000815260040161087c9061152f565b60405180910390fd5b5f815f015f6101000a81548160ff0219169083151502179055506001815f0160016101000a81548160ff02191690831515021790555084815f0160026101000a81548160ff021916908360ff160217905550857f4bc131c8eed755530a5147b209983cd87ef71cddfd408ac024323e9e6a6d16bc8686868660405161090d94939291906115a6565b60405180910390a2505050505050565b5f60025f8681526020019081526020015f209050805f015f9054906101000a900460ff16801561095b5750805f0160019054906101000a900460ff16155b61099a576040517f08c379a00000000000000000000000000000000000000000000000000000000081526004016109919061162e565b60405180910390fd5b805f0160039054906101000a900460ff1660ff168460ff16106109f2576040517f08c379a00000000000000000000000000000000000000000000000000000000081526004016109e990611696565b60405180910390fd5b5f816004015f3373ffffffffffffffffffffffffffffffffffffffff1673ffffffffffffffffffffffffffffffffffffffff1681526020019081526020015f205414610a73576040517f08c379a0000000000000000000000000000000000000000000000000000000008152600401610a6a906116fe565b60405180910390fd5b806005015f8381526020019081526020015f205f9054906101000a900460ff1615610ad3576040517f08c379a0000000000000000000000000000000000000000000000000000000008152600401610aca90611766565b60405180910390fd5b6001816005015f8481526020019081526020015f205f6101000a81548160ff0219169083151502179055507f000000000000000000000000000000000000000000000000000000000000000073ffffffffffffffffffffffffffffffffffffffff166323b872dd3330866040518463ffffffff1660e01b8152600401610b5b93929190611784565b6020604051808303815f875af1158015610b77573d5f5f3e3d5ffd5b505050506040513d601f19601f82011682018060405250810190610b9b9190611313565b610bda576040517f08c379a0000000000000000000000000000000000000000000000000000000008152600401610bd190611388565b60405180910390fd5b83816003015f3373ffffffffffffffffffffffffffffffffffffffff1673ffffffffffffffffffffffffffffffffffffffff1681526020019081526020015f205f6101000a81548160ff021916908360ff16021790555082816004015f3373ffffffffffffffffffffffffffffffffffffffff1673ffffffffffffffffffffffffffffffffffffffff1681526020019081526020015f208190555082816001015f8660ff1660ff1681526020019081526020015f205f828254610c9d91906117b9565b9250508190555082816002015f828254610cb791906117b9565b925050819055503373ffffffffffffffffffffffffffffffffffffffff16857fd1d1d2599452d6e5e8b049461a0339ee13ff763b663bcdcea27b3ca442457f51868686604051610d09939291906117ec565b60405180910390a35050505050565b5f5ffd5b5f5ffd5b5f819050919050565b610d3281610d20565b8114610d3c575f5ffd5b50565b5f81359050610d4d81610d29565b92915050565b5f60208284031215610d6857610d67610d18565b5b5f610d7584828501610d3f565b91505092915050565b5f73ffffffffffffffffffffffffffffffffffffffff82169050919050565b5f819050919050565b5f610dc0610dbb610db684610d7e565b610d9d565b610d7e565b9050919050565b5f610dd182610da6565b9050919050565b5f610de282610dc7565b9050919050565b610df281610dd8565b82525050565b5f602082019050610e0b5f830184610de9565b92915050565b5f610e1b82610d7e565b9050919050565b610e2b81610e11565b82525050565b5f602082019050610e445f830184610e22565b92915050565b5f60ff82169050919050565b610e5f81610e4a565b8114610e69575f5ffd5b50565b5f81359050610e7a81610e56565b92915050565b5f60208284031215610e9557610e94610d18565b5b5f610ea284828501610e6c565b91505092915050565b610eb481610d20565b82525050565b5f602082019050610ecd5f830184610eab565b92915050565b610edc81610e11565b8114610ee6575f5ffd5b50565b5f81359050610ef781610ed3565b92915050565b5f60208284031215610f1257610f11610d18565b5b5f610f1f84828501610ee9565b91505092915050565b5f819050919050565b610f3a81610f28565b8114610f44575f5ffd5b50565b5f81359050610f5581610f31565b92915050565b5f5ffd5b5f5ffd5b5f5ffd5b5f5f83601f840112610f7c57610f7b610f5b565b5b8235905067ffffffffffffffff811115610f9957610f98610f5f565b5b602083019150836001820283011115610fb557610fb4610f63565b5b9250929050565b5f5f5f5f5f60808688031215610fd557610fd4610d18565b5b5f610fe288828901610d3f565b9550506020610ff388828901610e6c565b945050604061100488828901610f47565b935050606086013567ffffffffffffffff81111561102557611024610d1c565b5b61103188828901610f67565b92509250509295509295909350565b5f5f5f5f6080858703121561105857611057610d18565b5b5f61106587828801610d3f565b945050602061107687828801610e6c565b935050604061108787828801610d3f565b925050606061109887828801610d3f565b91505092959194509250565b5f82825260208201905092915050565b7f6e6f7420736574746c65640000000000000000000000000000000000000000005f82015250565b5f6110e8600b836110a4565b91506110f3826110b4565b602082019050919050565b5f6020820190508181035f830152611115816110dc565b9050919050565b7f6c6f7374000000000000000000000000000000000000000000000000000000005f82015250565b5f6111506004836110a4565b915061115b8261111c565b602082019050919050565b5f6020820190508181035f83015261117d81611144565b9050919050565b7f6e6f6e65000000000000000000000000000000000000000000000000000000005f82015250565b5f6111b86004836110a4565b91506111c382611184565b602082019050919050565b5f6020820190508181035f8301526111e5816111ac565b9050919050565b7f4e487b71000000000000000000000000000000000000000000000000000000005f52601160045260245ffd5b5f61122382610d20565b915061122e83610d20565b925082820261123c81610d20565b91508282048414831517611253576112526111ec565b5b5092915050565b7f4e487b71000000000000000000000000000000000000000000000000000000005f52601260045260245ffd5b5f61129182610d20565b915061129c83610d20565b9250826112ac576112ab61125a565b5b828204905092915050565b5f6040820190506112ca5f830185610e22565b6112d76020830184610eab565b9392505050565b5f8115159050919050565b6112f2816112de565b81146112fc575f5ffd5b50565b5f8151905061130d816112e9565b92915050565b5f6020828403121561132857611327610d18565b5b5f611335848285016112ff565b91505092915050565b7f70617900000000000000000000000000000000000000000000000000000000005f82015250565b5f6113726003836110a4565b915061137d8261133e565b602082019050919050565b5f6020820190508181035f83015261139f81611366565b9050919050565b7f6e6f74206a7564676500000000000000000000000000000000000000000000005f82015250565b5f6113da6009836110a4565b91506113e5826113a6565b602082019050919050565b5f6020820190508181035f830152611407816113ce565b9050919050565b5f61141882610d20565b91507fffffffffffffffffffffffffffffffffffffffffffffffffffffffffffffffff820361144a576114496111ec565b5b600182019050919050565b61145e81610e4a565b82525050565b5f6020820190506114775f830184611455565b92915050565b7f6e6f74206f70657261746f7200000000000000000000000000000000000000005f82015250565b5f6114b1600c836110a4565b91506114bc8261147d565b602082019050919050565b5f6020820190508181035f8301526114de816114a5565b9050919050565b7f62616420737461746500000000000000000000000000000000000000000000005f82015250565b5f6115196009836110a4565b9150611524826114e5565b602082019050919050565b5f6020820190508181035f8301526115468161150d565b9050919050565b61155681610f28565b82525050565b828183375f83830152505050565b5f601f19601f8301169050919050565b5f61158583856110a4565b935061159283858461155c565b61159b8361156a565b840190509392505050565b5f6060820190506115b95f830187611455565b6115c6602083018661154d565b81810360408301526115d981848661157a565b905095945050505050565b7f636c6f73656400000000000000000000000000000000000000000000000000005f82015250565b5f6116186006836110a4565b9150611623826115e4565b602082019050919050565b5f6020820190508181035f8301526116458161160c565b9050919050565b7f62616420726163657200000000000000000000000000000000000000000000005f82015250565b5f6116806009836110a4565b915061168b8261164c565b602082019050919050565b5f6020820190508181035f8301526116ad81611674565b9050919050565b7f616c7265616479206265740000000000000000000000000000000000000000005f82015250565b5f6116e8600b836110a4565b91506116f3826116b4565b602082019050919050565b5f6020820190508181035f830152611715816116dc565b9050919050565b7f68756d616e20616c7265616479206265740000000000000000000000000000005f82015250565b5f6117506011836110a4565b915061175b8261171c565b602082019050919050565b5f6020820190508181035f83015261177d81611744565b9050919050565b5f6060820190506117975f830186610e22565b6117a46020830185610e22565b6117b16040830184610eab565b949350505050565b5f6117c382610d20565b91506117ce83610d20565b92508282019050808211156117e6576117e56111ec565b5b92915050565b5f6060820190506117ff5f830186611455565b61180c6020830185610eab565b6118196040830184610eab565b94935050505056fea264697066735822122019ab80d9b3b9b77cfe3b9156bf16c041ca9a498beb51f26252ed0513d1e6cd9e64736f6c634300081c0033","linkReferences":{}},"methodIdentifiers":{"bet(uint256,uint8,uint256,uint256)":"fe965040","claim(uint256)":"379607f5","judge()":"573255f4","nextRaceId()":"d9b8fd8f","openRace(uint8)":"6c6220b8","operator()":"570ca735","setJudge(address)":"b157c5cd","settle(uint256,uint8,bytes32,string)":"ddb79c33","usdc()":"3e413bee"},"id":0}