{"abi":[{"type":"constructor","inputs":[{"name":"_forwarder","type":"address","internalType":"address"}],"stateMutability":"nonpayable"},{"type":"function","name":"THRESHOLD","inputs":[],"outputs":[{"name":"","type":"uint256","internalType":"uint256"}],"stateMutability":"view"},{"type":"function","name":"forwarder","inputs":[],"outputs":[{"name":"","type":"address","internalType":"address"}],"stateMutability":"view"},{"type":"function","name":"getAttestation","inputs":[{"name":"job","type":"string","internalType":"string"}],"outputs":[{"name":"","type":"tuple","internalType":"struct AttestationConsumer.Attestation","components":[{"name":"score","type":"uint256","internalType":"uint256"},{"name":"proofHash","type":"bytes32","internalType":"bytes32"},{"name":"timestamp","type":"uint64","internalType":"uint64"},{"name":"verified","type":"bool","internalType":"bool"},{"name":"exists","type":"bool","internalType":"bool"}]}],"stateMutability":"view"},{"type":"function","name":"isVerified","inputs":[{"name":"job","type":"string","internalType":"string"}],"outputs":[{"name":"","type":"bool","internalType":"bool"}],"stateMutability":"view"},{"type":"function","name":"onReport","inputs":[{"name":"","type":"bytes","internalType":"bytes"},{"name":"report","type":"bytes","internalType":"bytes"}],"outputs":[],"stateMutability":"nonpayable"},{"type":"function","name":"owner","inputs":[],"outputs":[{"name":"","type":"address","internalType":"address"}],"stateMutability":"view"},{"type":"function","name":"setForwarder","inputs":[{"name":"f","type":"address","internalType":"address"}],"outputs":[],"stateMutability":"nonpayable"},{"type":"event","name":"AttestationVerified","inputs":[{"name":"job","type":"string","indexed":false,"internalType":"string"},{"name":"score","type":"uint256","indexed":false,"internalType":"uint256"},{"name":"proofHash","type":"bytes32","indexed":false,"internalType":"bytes32"},{"name":"verified","type":"bool","indexed":false,"internalType":"bool"},{"name":"timestamp","type":"uint64","indexed":false,"internalType":"uint64"}],"anonymous":false},{"type":"event","name":"ForwarderSet","inputs":[{"name":"forwarder","type":"address","indexed":false,"internalType":"address"}],"anonymous":false}],"bytecode":{"object":"0x608060405234801561000f575f5ffd5b50604051610efc380380610efc83398181016040528101906100319190610114565b335f5f6101000a81548173ffffffffffffffffffffffffffffffffffffffff021916908373ffffffffffffffffffffffffffffffffffffffff1602179055508060015f6101000a81548173ffffffffffffffffffffffffffffffffffffffff021916908373ffffffffffffffffffffffffffffffffffffffff1602179055505061013f565b5f5ffd5b5f73ffffffffffffffffffffffffffffffffffffffff82169050919050565b5f6100e3826100ba565b9050919050565b6100f3816100d9565b81146100fd575f5ffd5b50565b5f8151905061010e816100ea565b92915050565b5f60208284031215610129576101286100b6565b5b5f61013684828501610100565b91505092915050565b610db08061014c5f395ff3fe608060405234801561000f575f5ffd5b506004361061007b575f3560e01c80638da5cb5b116100595780638da5cb5b146100e9578063b9998a2414610107578063d607daf614610123578063f645d4f9146101535761007b565b8063234c76d51461007f578063785ffb37146100af578063805f2132146100cd575b5f5ffd5b61009960048036038101906100949190610690565b610171565b6040516100a691906106f5565b60405180910390f35b6100b76101b3565b6040516100c49190610726565b60405180910390f35b6100e760048036038101906100e29190610794565b6101b8565b005b6100f16103d8565b6040516100fe9190610851565b60405180910390f35b610121600480360381019061011c9190610894565b6103fc565b005b61013d60048036038101906101389190610690565b610504565b60405161014a919061097d565b60405180910390f35b61015b6105c1565b6040516101689190610851565b60405180910390f35b5f60025f84846040516101859291906109d2565b604051809103902081526020019081526020015f2060020160089054906101000a900460ff16905092915050565b604681565b5f73ffffffffffffffffffffffffffffffffffffffff1660015f9054906101000a900473ffffffffffffffffffffffffffffffffffffffff1673ffffffffffffffffffffffffffffffffffffffff16148061025f575060015f9054906101000a900473ffffffffffffffffffffffffffffffffffffffff1673ffffffffffffffffffffffffffffffffffffffff163373ffffffffffffffffffffffffffffffffffffffff16145b61029e576040517f08c379a000000000000000000000000000000000000000000000000000000000815260040161029590610a44565b60405180910390fd5b5f5f5f84848101906102b09190610be0565b9250925092505f604683101590506040518060a001604052808481526020018381526020014267ffffffffffffffff16815260200182151581526020016001151581525060025f868051906020012081526020019081526020015f205f820151815f0155602082015181600101556040820151816002015f6101000a81548167ffffffffffffffff021916908367ffffffffffffffff16021790555060608201518160020160086101000a81548160ff02191690831515021790555060808201518160020160096101000a81548160ff0219169083151502179055509050507f2567d8f9693ef0b3f420c9fdd67d9c97927aa319a8d4a8a6ee5ed1b060fae2f984848484426040516103c6959493929190610cba565b60405180910390a15050505050505050565b5f5f9054906101000a900473ffffffffffffffffffffffffffffffffffffffff1681565b5f5f9054906101000a900473ffffffffffffffffffffffffffffffffffffffff1673ffffffffffffffffffffffffffffffffffffffff163373ffffffffffffffffffffffffffffffffffffffff161461048a576040517f08c379a000000000000000000000000000000000000000000000000000000000815260040161048190610d5c565b60405180910390fd5b8060015f6101000a81548173ffffffffffffffffffffffffffffffffffffffff021916908373ffffffffffffffffffffffffffffffffffffffff1602179055507f01e06e871b32b0b127105fbd5dbecd24273b7e1191a8940de24f4ea249e355d6816040516104f99190610851565b60405180910390a150565b61050c6105e6565b60025f848460405161051f9291906109d2565b604051809103902081526020019081526020015f206040518060a00160405290815f820154815260200160018201548152602001600282015f9054906101000a900467ffffffffffffffff1667ffffffffffffffff1667ffffffffffffffff1681526020016002820160089054906101000a900460ff161515151581526020016002820160099054906101000a900460ff161515151581525050905092915050565b60015f9054906101000a900473ffffffffffffffffffffffffffffffffffffffff1681565b6040518060a001604052805f81526020015f81526020015f67ffffffffffffffff1681526020015f151581526020015f151581525090565b5f604051905090565b5f5ffd5b5f5ffd5b5f5ffd5b5f5ffd5b5f5ffd5b5f5f83601f8401126106505761064f61062f565b5b8235905067ffffffffffffffff81111561066d5761066c610633565b5b60208301915083600182028301111561068957610688610637565b5b9250929050565b5f5f602083850312156106a6576106a5610627565b5b5f83013567ffffffffffffffff8111156106c3576106c261062b565b5b6106cf8582860161063b565b92509250509250929050565b5f8115159050919050565b6106ef816106db565b82525050565b5f6020820190506107085f8301846106e6565b92915050565b5f819050919050565b6107208161070e565b82525050565b5f6020820190506107395f830184610717565b92915050565b5f5f83601f8401126107545761075361062f565b5b8235905067ffffffffffffffff81111561077157610770610633565b5b60208301915083600182028301111561078d5761078c610637565b5b9250929050565b5f5f5f5f604085870312156107ac576107ab610627565b5b5f85013567ffffffffffffffff8111156107c9576107c861062b565b5b6107d58782880161073f565b9450945050602085013567ffffffffffffffff8111156107f8576107f761062b565b5b6108048782880161073f565b925092505092959194509250565b5f73ffffffffffffffffffffffffffffffffffffffff82169050919050565b5f61083b82610812565b9050919050565b61084b81610831565b82525050565b5f6020820190506108645f830184610842565b92915050565b61087381610831565b811461087d575f5ffd5b50565b5f8135905061088e8161086a565b92915050565b5f602082840312156108a9576108a8610627565b5b5f6108b684828501610880565b91505092915050565b6108c88161070e565b82525050565b5f819050919050565b6108e0816108ce565b82525050565b5f67ffffffffffffffff82169050919050565b610902816108e6565b82525050565b610911816106db565b82525050565b60a082015f82015161092b5f8501826108bf565b50602082015161093e60208501826108d7565b50604082015161095160408501826108f9565b5060608201516109646060850182610908565b5060808201516109776080850182610908565b50505050565b5f60a0820190506109905f830184610917565b92915050565b5f81905092915050565b828183375f83830152505050565b5f6109b98385610996565b93506109c68385846109a0565b82840190509392505050565b5f6109de8284866109ae565b91508190509392505050565b5f82825260208201905092915050565b7f756e617574686f72697a656400000000000000000000000000000000000000005f82015250565b5f610a2e600c836109ea565b9150610a39826109fa565b602082019050919050565b5f6020820190508181035f830152610a5b81610a22565b9050919050565b5f5ffd5b5f601f19601f8301169050919050565b7f4e487b71000000000000000000000000000000000000000000000000000000005f52604160045260245ffd5b610aac82610a66565b810181811067ffffffffffffffff82111715610acb57610aca610a76565b5b80604052505050565b5f610add61061e565b9050610ae98282610aa3565b919050565b5f67ffffffffffffffff821115610b0857610b07610a76565b5b610b1182610a66565b9050602081019050919050565b5f610b30610b2b84610aee565b610ad4565b905082815260208101848484011115610b4c57610b4b610a62565b5b610b578482856109a0565b509392505050565b5f82601f830112610b7357610b7261062f565b5b8135610b83848260208601610b1e565b91505092915050565b610b958161070e565b8114610b9f575f5ffd5b50565b5f81359050610bb081610b8c565b92915050565b610bbf816108ce565b8114610bc9575f5ffd5b50565b5f81359050610bda81610bb6565b92915050565b5f5f5f60608486031215610bf757610bf6610627565b5b5f84013567ffffffffffffffff811115610c1457610c1361062b565b5b610c2086828701610b5f565b9350506020610c3186828701610ba2565b9250506040610c4286828701610bcc565b9150509250925092565b5f81519050919050565b8281835e5f83830152505050565b5f610c6e82610c4c565b610c7881856109ea565b9350610c88818560208601610c56565b610c9181610a66565b840191505092915050565b610ca5816108ce565b82525050565b610cb4816108e6565b82525050565b5f60a0820190508181035f830152610cd28188610c64565b9050610ce16020830187610717565b610cee6040830186610c9c565b610cfb60608301856106e6565b610d086080830184610cab565b9695505050505050565b7f6f6e6c79206f776e6572000000000000000000000000000000000000000000005f82015250565b5f610d46600a836109ea565b9150610d5182610d12565b602082019050919050565b5f6020820190508181035f830152610d7381610d3a565b905091905056fea264697066735822122004b727a0c059fd065c95be9b3e177767b0d785081d7d8fd8e1a8087fd0cdaeb664736f6c634300081c0033","linkReferences":{}},"methodIdentifiers":{"THRESHOLD()":"785ffb37","forwarder()":"f645d4f9","getAttestation(string)":"d607daf6","isVerified(string)":"234c76d5","onReport(bytes,bytes)":"805f2132","owner()":"8da5cb5b","setForwarder(address)":"b9998a24"},"id":0}